{
  "contractName": "AuctionHouse",
  "abi": [
    {
      "constant": true,
      "inputs": [
        {
          "name": "",
          "type": "uint256"
        }
      ],
      "name": "auctions",
      "outputs": [
        {
          "name": "",
          "type": "address"
        }
      ],
      "payable": false,
      "stateMutability": "view",
      "type": "function"
    },
    {
      "constant": true,
      "inputs": [],
      "name": "num_auctions",
      "outputs": [
        {
          "name": "",
          "type": "uint256"
        }
      ],
      "payable": false,
      "stateMutability": "view",
      "type": "function"
    },
    {
      "inputs": [],
      "payable": false,
      "stateMutability": "nonpayable",
      "type": "constructor"
    },
    {
      "anonymous": false,
      "inputs": [
        {
          "indexed": false,
          "name": "_type",
          "type": "string"
        },
        {
          "indexed": false,
          "name": "_address",
          "type": "address"
        }
      ],
      "name": "newAuctionAvailable",
      "type": "event"
    },
    {
      "constant": false,
      "inputs": [
        {
          "name": "_itemName",
          "type": "string"
        },
        {
          "name": "_reservePrice",
          "type": "uint256"
        },
        {
          "name": "_initialPrice",
          "type": "uint256"
        },
        {
          "name": "_strategy",
          "type": "address"
        }
      ],
      "name": "newDutch",
      "outputs": [],
      "payable": true,
      "stateMutability": "payable",
      "type": "function"
    },
    {
      "constant": false,
      "inputs": [
        {
          "name": "_itemName",
          "type": "string"
        },
        {
          "name": "_reservePrice",
          "type": "uint256"
        },
        {
          "name": "_min_deposit",
          "type": "uint256"
        },
        {
          "name": "_commitment_len",
          "type": "uint256"
        },
        {
          "name": "_withdrawal_len",
          "type": "uint256"
        },
        {
          "name": "_opening_len",
          "type": "uint256"
        }
      ],
      "name": "newVickrey",
      "outputs": [],
      "payable": true,
      "stateMutability": "payable",
      "type": "function"
    },
    {
      "constant": false,
      "inputs": [],
      "name": "getFees",
      "outputs": [],
      "payable": false,
      "stateMutability": "nonpayable",
      "type": "function"
    }
  ],
  "bytecode": "0x6080604052662386f26fc1000060005534801561001b57600080fd5b5033600360006101000a81548173ffffffffffffffffffffffffffffffffffffffff021916908373ffffffffffffffffffffffffffffffffffffffff1602179055506142808061006c6000396000f3fe6080604052600436106200006d576000357c010000000000000000000000000000000000000000000000000000000090048063571a26a0146200007257806357f3619314620000f15780636f0cf9a414620001e45780639370c1641462000212578063db8d55f11462000307575b600080fd5b3480156200007f57600080fd5b50620000af600480360360208110156200009857600080fd5b810190808035906020019092919050505062000321565b604051808273ffffffffffffffffffffffffffffffffffffffff1673ffffffffffffffffffffffffffffffffffffffff16815260200191505060405180910390f35b620001e2600480360360c08110156200010957600080fd5b81019080803590602001906401000000008111156200012757600080fd5b8201836020820111156200013a57600080fd5b803590602001918460018302840111640100000000831117156200015d57600080fd5b91908080601f016020809104026020016040519081016040528093929190818152602001838380828437600081840152601f19601f820116905080830192505050505050509192919290803590602001909291908035906020019092919080359060200190929190803590602001909291908035906020019092919050505062000360565b005b348015620001f157600080fd5b50620001fc62000647565b6040518082815260200191505060405180910390f35b62000305600480360360808110156200022a57600080fd5b81019080803590602001906401000000008111156200024857600080fd5b8201836020820111156200025b57600080fd5b803590602001918460018302840111640100000000831117156200027e57600080fd5b91908080601f016020809104026020016040519081016040528093929190818152602001838380828437600081840152601f19601f8201169050808301925050505050505091929192908035906020019092919080359060200190929190803573ffffffffffffffffffffffffffffffffffffffff1690602001909291905050506200064d565b005b3480156200031457600080fd5b506200031f6200094e565b005b6001818154811015156200033157fe5b906000526020600020016000915054906101000a900473ffffffffffffffffffffffffffffffffffffffff1681565b60005434141515620003da576040517f08c379a000000000000000000000000000000000000000000000000000000000815260040180806020018281038252601b8152602001807f506c656173652073656e64206120636f72726563742076616c7565000000000081525060200191505060405180910390fd5b6000600360009054906101000a900473ffffffffffffffffffffffffffffffffffffffff16338888888888886200041062000a2e565b808973ffffffffffffffffffffffffffffffffffffffff1673ffffffffffffffffffffffffffffffffffffffff1681526020018873ffffffffffffffffffffffffffffffffffffffff1673ffffffffffffffffffffffffffffffffffffffff16815260200180602001878152602001868152602001858152602001848152602001838152602001828103825288818151815260200191508051906020019080838360005b83811015620004d1578082015181840152602081019050620004b4565b50505050905090810190601f168015620004ff5780820380516001836020036101000a031916815260200191505b509950505050505050505050604051809103906000f08015801562000528573d6000803e3d6000fd5b50905060018190806001815401808255809150509060018203906000526020600020016000909192909190916101000a81548173ffffffffffffffffffffffffffffffffffffffff021916908373ffffffffffffffffffffffffffffffffffffffff1602179055505060016002600082825401925050819055507fbd89ca29a9c5ddb927f92cb1ccde38d5d135cfb597fcde3ecf20529ab97ef54b8160405180806020018373ffffffffffffffffffffffffffffffffffffffff1673ffffffffffffffffffffffffffffffffffffffff168152602001828103825260078152602001807f5669636b726579000000000000000000000000000000000000000000000000008152506020019250505060405180910390a150505050505050565b60025481565b60005434141515620006c7576040517f08c379a000000000000000000000000000000000000000000000000000000000815260040180806020018281038252601b8152602001807f506c656173652073656e64206120636f72726563742076616c7565000000000081525060200191505060405180910390fd5b6000600360009054906101000a900473ffffffffffffffffffffffffffffffffffffffff163386868686620006fb62000a3f565b808773ffffffffffffffffffffffffffffffffffffffff1673ffffffffffffffffffffffffffffffffffffffff1681526020018673ffffffffffffffffffffffffffffffffffffffff1673ffffffffffffffffffffffffffffffffffffffff168152602001806020018581526020018481526020018373ffffffffffffffffffffffffffffffffffffffff1673ffffffffffffffffffffffffffffffffffffffff168152602001828103825286818151815260200191508051906020019080838360005b83811015620007dc578082015181840152602081019050620007bf565b50505050905090810190601f1680156200080a5780820380516001836020036101000a031916815260200191505b50975050505050505050604051809103906000f08015801562000831573d6000803e3d6000fd5b50905060018190806001815401808255809150509060018203906000526020600020016000909192909190916101000a81548173ffffffffffffffffffffffffffffffffffffffff021916908373ffffffffffffffffffffffffffffffffffffffff1602179055505060016002600082825401925050819055507fbd89ca29a9c5ddb927f92cb1ccde38d5d135cfb597fcde3ecf20529ab97ef54b8160405180806020018373ffffffffffffffffffffffffffffffffffffffff1673ffffffffffffffffffffffffffffffffffffffff168152602001828103825260058152602001807f44757463680000000000000000000000000000000000000000000000000000008152506020019250505060405180910390a15050505050565b600360009054906101000a900473ffffffffffffffffffffffffffffffffffffffff1673ffffffffffffffffffffffffffffffffffffffff163373ffffffffffffffffffffffffffffffffffffffff16141515620009ab57600080fd5b600360009054906101000a900473ffffffffffffffffffffffffffffffffffffffff1673ffffffffffffffffffffffffffffffffffffffff166108fc3073ffffffffffffffffffffffffffffffffffffffff16319081150290604051600060405180830381858888f1935050505015801562000a2b573d6000803e3d6000fd5b50565b60405161252e8062000a5183390190565b6040516112d68062002f7f8339019056fe60806040526001601260006101000a81548160ff0219169083151502179055503480156200002c57600080fd5b506040516200252e3803806200252e83398101806040526101008110156200005357600080fd5b81019080805190602001909291908051906020019092919080516401000000008111156200008057600080fd5b828101905060208101848111156200009757600080fd5b8151856001820283011164010000000082111715620000b557600080fd5b5050929190602001805190602001909291908051906020019092919080519060200190929190805190602001909291908051906020019092919050505060008511151562000191576040517f08c379a000000000000000000000000000000000000000000000000000000000815260040180806020018281038252602a8152602001807f526573657276652070726963652073686f756c6420626520677265617465722081526020017f7468616e207a65726f2e0000000000000000000000000000000000000000000081525060400191505060405180910390fd5b84841015151562000230576040517f08c379a00000000000000000000000000000000000000000000000000000000081526004018080602001828103825260348152602001807f546865206465706f7369742073686f756c64206265206772656174657220746881526020017f616e20746865207265736572766520707269636500000000000000000000000081525060400191505060405180910390fd5b600083111515620002cf576040517f08c379a00000000000000000000000000000000000000000000000000000000081526004018080602001828103825260358152602001807f546865206c656e676874206f6620636f6d6d69746d656e742073686f756c642081526020017f62652067726561746572207468616e207a65726f2e000000000000000000000081525060400191505060405180910390fd5b6000821115156200036e576040517f08c379a00000000000000000000000000000000000000000000000000000000081526004018080602001828103825260358152602001807f546865206c656e676874206f66207769746864726177616c2073686f756c642081526020017f62652067726561746572207468616e207a65726f2e000000000000000000000081525060400191505060405180910390fd5b6000811115156200040d576040517f08c379a00000000000000000000000000000000000000000000000000000000081526004018080602001828103825260328152602001807f546865206c656e676874206f66206f70656e696e672073686f756c642062652081526020017f67726561746572207468616e207a65726f2e000000000000000000000000000081525060400191505060405180910390fd5b87600060020160006101000a81548173ffffffffffffffffffffffffffffffffffffffff021916908373ffffffffffffffffffffffffffffffffffffffff16021790555086600060030160006101000a81548173ffffffffffffffffffffffffffffffffffffffff021916908373ffffffffffffffffffffffffffffffffffffffff1602179055508560006004019080519060200190620004b092919062000568565b506040805190810160405280600781526020017f5669636b726579000000000000000000000000000000000000000000000000008152506000800190805190602001906200050092919062000568565b50436000600101819055506000600860006101000a81548160ff021916908360048111156200052b57fe5b021790555084600a8190555083600b8190555082600c8190555081600d8190555080600e8190555043600981905550505050505050505062000617565b828054600181600116156101000203166002900490600052602060002090601f016020900481019282601f10620005ab57805160ff1916838001178555620005dc565b82800160010185558215620005dc579182015b82811115620005db578251825591602001919060010190620005be565b5b509050620005eb9190620005ef565b5090565b6200061491905b8082111562000610576000816000905550600101620005f6565b5090565b90565b611f0780620006276000396000f3fe60806040526004361061009e576000357c0100000000000000000000000000000000000000000000000000000000900480634bb278f3146100a35780634d5f811e146100ba578063605fed87146100e55780637284e416146100fc578063957bb1e0146102a6578063b1c9fe6e146102d4578063bc2f8dd81461030d578063d3b3f73a14610324578063d4e9329214610352578063fef06efa14610369575b600080fd5b3480156100af57600080fd5b506100b8610380565b005b3480156100c657600080fd5b506100cf6108c0565b6040518082815260200191505060405180910390f35b3480156100f157600080fd5b506100fa6108c6565b005b34801561010857600080fd5b50610111610b56565b60405180806020018981526020018873ffffffffffffffffffffffffffffffffffffffff1673ffffffffffffffffffffffffffffffffffffffff1681526020018773ffffffffffffffffffffffffffffffffffffffff1673ffffffffffffffffffffffffffffffffffffffff168152602001806020018681526020018573ffffffffffffffffffffffffffffffffffffffff1673ffffffffffffffffffffffffffffffffffffffff16815260200184815260200183810383528b818151815260200191508051906020019080838360005b838110156101fd5780820151818401526020810190506101e2565b50505050905090810190601f16801561022a5780820380516001836020036101000a031916815260200191505b50838103825287818151815260200191508051906020019080838360005b83811015610263578082015181840152602081019050610248565b50505050905090810190601f1680156102905780820380516001836020036101000a031916815260200191505b509a505050505050505050505060405180910390f35b6102d2600480360360208110156102bc57600080fd5b8101908080359060200190929190505050610d1c565b005b3480156102e057600080fd5b506102e9610ff6565b604051808260048111156102f957fe5b60ff16815260200191505060405180910390f35b34801561031957600080fd5b50610322611009565b005b6103506004803603602081101561033a57600080fd5b81019080803590602001909291905050506112b6565b005b34801561035e57600080fd5b50610367611752565b005b34801561037557600080fd5b5061037e611bb4565b005b600060020160009054906101000a900473ffffffffffffffffffffffffffffffffffffffff1673ffffffffffffffffffffffffffffffffffffffff163373ffffffffffffffffffffffffffffffffffffffff1614151561046e576040517f08c379a000000000000000000000000000000000000000000000000000000000815260040180806020018281038252602c8152602001807f4f6e6c79207468652061756374696f6e20686f7573652063616e2072756e207481526020017f6869732066756e6374696f6e000000000000000000000000000000000000000081525060400191505060405180910390fd5b6003600481111561047b57fe5b600860009054906101000a900460ff16600481111561049657fe5b141515610531576040517f08c379a000000000000000000000000000000000000000000000000000000000815260040180806020018281038252602e8152602001807f596f752063616e27742066696e616c697a652074686520636f6e74726163742081526020017f6265666f7265206f70656e696e6700000000000000000000000000000000000081525060400191505060405180910390fd5b600e5460095443031115156105d4576040517f08c379a00000000000000000000000000000000000000000000000000000000081526004018080602001828103825260228152602001807f4f70656e696e6720706572696f64206973206e6f742066696e6973686564207981526020017f657400000000000000000000000000000000000000000000000000000000000081525060400191505060405180910390fd5b600073ffffffffffffffffffffffffffffffffffffffff16600f60009054906101000a900473ffffffffffffffffffffffffffffffffffffffff1673ffffffffffffffffffffffffffffffffffffffff1614151561077f57600f60009054906101000a900473ffffffffffffffffffffffffffffffffffffffff16600060060160006101000a81548173ffffffffffffffffffffffffffffffffffffffff021916908373ffffffffffffffffffffffffffffffffffffffff160217905550601154600060070181905550600f60009054906101000a900473ffffffffffffffffffffffffffffffffffffffff1673ffffffffffffffffffffffffffffffffffffffff166108fc601154601054039081150290604051600060405180830381858888f1935050505015801561070c573d6000803e3d6000fd5b50600060030160009054906101000a900473ffffffffffffffffffffffffffffffffffffffff1673ffffffffffffffffffffffffffffffffffffffff166108fc6000600701549081150290604051600060405180830381858888f1935050505015801561077d573d6000803e3d6000fd5b505b60007364db1b94a0304e4c27de2e758b2f962d09dfe503905060003073ffffffffffffffffffffffffffffffffffffffff163190506004600860006101000a81548160ff021916908360048111156107d357fe5b02179055507ff695043c68d141bf7715a80c7c181a21c469846be41ff74c864e392ba7b9c888600060060160009054906101000a900473ffffffffffffffffffffffffffffffffffffffff1660006007015483604051808473ffffffffffffffffffffffffffffffffffffffff1673ffffffffffffffffffffffffffffffffffffffff168152602001838152602001828152602001935050505060405180910390a18173ffffffffffffffffffffffffffffffffffffffff166108fc829081150290604051600060405180830381858888f193505050501580156108bb573d6000803e3d6000fd5b505050565b600b5481565b600060020160009054906101000a900473ffffffffffffffffffffffffffffffffffffffff1673ffffffffffffffffffffffffffffffffffffffff163373ffffffffffffffffffffffffffffffffffffffff161415156109b4576040517f08c379a000000000000000000000000000000000000000000000000000000000815260040180806020018281038252602c8152602001807f4f6e6c79207468652061756374696f6e20686f7573652063616e2072756e207481526020017f6869732066756e6374696f6e000000000000000000000000000000000000000081525060400191505060405180910390fd5b600060048111156109c157fe5b600860009054906101000a900460ff1660048111156109dc57fe5b141515610a77576040517f08c379a00000000000000000000000000000000000000000000000000000000081526004018080602001828103825260388152602001807f546f2061637469766174652074686520636f6e747261637420796f75206d757381526020017f7420626520696e2074686520477261636520506572696f64000000000000000081525060400191505060405180910390fd5b60146009544303111515610af3576040517f08c379a00000000000000000000000000000000000000000000000000000000081526004018080602001828103825260208152602001807f477261636520706572696f64206973206e6f742066696e69736865642079657481525060200191505060405180910390fd5b6001600860006101000a81548160ff02191690836004811115610b1257fe5b021790555043600060050181905550436009819055507fee2679bc2382e067cc3dfbda872852b5b1702b359c1fd6ce272c32dae5bacabf60405160405180910390a1565b6000806000018054600181600116156101000203166002900480601f016020809104026020016040519081016040528092919081815260200182805460018160011615610100020316600290048015610bf05780601f10610bc557610100808354040283529160200191610bf0565b820191906000526020600020905b815481529060010190602001808311610bd357829003601f168201915b5050505050908060010154908060020160009054906101000a900473ffffffffffffffffffffffffffffffffffffffff16908060030160009054906101000a900473ffffffffffffffffffffffffffffffffffffffff1690806004018054600181600116156101000203166002900480601f016020809104026020016040519081016040528092919081815260200182805460018160011615610100020316600290048015610ce05780601f10610cb557610100808354040283529160200191610ce0565b820191906000526020600020905b815481529060010190602001808311610cc357829003601f168201915b5050505050908060050154908060060160009054906101000a900473ffffffffffffffffffffffffffffffffffffffff16908060070154905088565b60016004811115610d2957fe5b600860009054906101000a900460ff166004811115610d4457fe5b141515610db9576040517f08c379a00000000000000000000000000000000000000000000000000000000081526004018080602001828103825260208152602001807f436f6d6d69746d656e74207068617365206e6f7420737461727465642079657481525060200191505060405180910390fd5b600c54600954430311151515610e37576040517f08c379a00000000000000000000000000000000000000000000000000000000081526004018080602001828103825260198152602001807f436f6d6d69746d656e7420706861736520697320656e6465640000000000000081525060200191505060405180910390fd5b600b543410151515610eb1576040517f08c379a00000000000000000000000000000000000000000000000000000000081526004018080602001828103825260208152602001807f5468652076616c75652073656e74206973206e6f742073756666696369656e7481525060200191505060405180910390fd5b6000601360003373ffffffffffffffffffffffffffffffffffffffff1673ffffffffffffffffffffffffffffffffffffffff16815260200190815260200160002060000154141515610f6b576040517f08c379a00000000000000000000000000000000000000000000000000000000081526004018080602001828103825260208152602001807f596f75206861766520616c7265616479207375626d697474656420612062696481525060200191505060405180910390fd5b610f73611eac565b818160400181815250503481606001818152505080601360003373ffffffffffffffffffffffffffffffffffffffff1673ffffffffffffffffffffffffffffffffffffffff168152602001908152602001600020600082015181600001556020820151816001015560408201518160020155606082015181600301559050505050565b600860009054906101000a900460ff1681565b600060020160009054906101000a900473ffffffffffffffffffffffffffffffffffffffff1673ffffffffffffffffffffffffffffffffffffffff163373ffffffffffffffffffffffffffffffffffffffff161415156110f7576040517f08c379a000000000000000000000000000000000000000000000000000000000815260040180806020018281038252602c8152602001807f4f6e6c79207468652061756374696f6e20686f7573652063616e2072756e207481526020017f6869732066756e6374696f6e000000000000000000000000000000000000000081525060400191505060405180910390fd5b6001600481111561110457fe5b600860009054906101000a900460ff16600481111561111f57fe5b1415156111ba576040517f08c379a000000000000000000000000000000000000000000000000000000000815260040180806020018281038252602c8152602001807f596f752063616e2774207374617274207769746864726177616c206265666f7281526020017f6520636f6d6d69746d656e74000000000000000000000000000000000000000081525060400191505060405180910390fd5b600c54600954430311151561125d576040517f08c379a00000000000000000000000000000000000000000000000000000000081526004018080602001828103825260258152602001807f436f6d6d69746d656e7420706572696f64206973206e6f742066696e6973686581526020017f642079657400000000000000000000000000000000000000000000000000000081525060400191505060405180910390fd5b6002600860006101000a81548160ff0219169083600481111561127c57fe5b0217905550436009819055507f06179f52469b624307d1134ccac6737f9f8297dc742b397eb14de0530dd596fa60405160405180910390a1565b600360048111156112c357fe5b600860009054906101000a900460ff1660048111156112de57fe5b141515611353576040517f08c379a000000000000000000000000000000000000000000000000000000000815260040180806020018281038252601d8152602001807f4f70656e696e67207068617365206e6f7420737461727465642079657400000081525060200191505060405180910390fd5b600e546009544303111515156113d1576040517f08c379a00000000000000000000000000000000000000000000000000000000081526004018080602001828103825260168152602001807f4f70656e696e6720706861736520697320656e6465640000000000000000000081525060200191505060405180910390fd5b601360003373ffffffffffffffffffffffffffffffffffffffff1673ffffffffffffffffffffffffffffffffffffffff1681526020019081526020016000206002015434826040516020018083815260200182815260200192505050604051602081830303815290604052805190602001201415156114b8576040517f08c379a000000000000000000000000000000000000000000000000000000000815260040180806020018281038252600a8152602001807f57726f6e6720686173680000000000000000000000000000000000000000000081525060200191505060405180910390fd5b6000601360003373ffffffffffffffffffffffffffffffffffffffff1673ffffffffffffffffffffffffffffffffffffffff1681526020019081526020016000206003015490506000601360003373ffffffffffffffffffffffffffffffffffffffff1673ffffffffffffffffffffffffffffffffffffffff168152602001908152602001600020600301819055503373ffffffffffffffffffffffffffffffffffffffff166108fc829081150290604051600060405180830381858888f1935050505015801561158d573d6000803e3d6000fd5b5034601360003373ffffffffffffffffffffffffffffffffffffffff1673ffffffffffffffffffffffffffffffffffffffff1681526020019081526020016000206000018190555081601360003373ffffffffffffffffffffffffffffffffffffffff1673ffffffffffffffffffffffffffffffffffffffff16815260200190815260200160002060010181905550601260009054906101000a900460ff16156116a25733600f60006101000a81548173ffffffffffffffffffffffffffffffffffffffff021916908373ffffffffffffffffffffffffffffffffffffffff16021790555034601081905550600a546011819055506000601260006101000a81548160ff02191690831515021790555061174e565b601054341115611730576010546011819055506116e3600f60009054906101000a900473ffffffffffffffffffffffffffffffffffffffff16601054611e61565b33600f60006101000a81548173ffffffffffffffffffffffffffffffffffffffff021916908373ffffffffffffffffffffffffffffffffffffffff1602179055503460108190555061174d565b60115434111561174257346011819055505b61174c3334611e61565b5b5b5050565b6002600481111561175f57fe5b600860009054906101000a900460ff16600481111561177a57fe5b1415156117ef576040517f08c379a00000000000000000000000000000000000000000000000000000000081526004018080602001828103825260208152602001807f5769746864726177616c207068617365206e6f7420737461727465642079657481525060200191505060405180910390fd5b600d5460095443031115151561186d576040517f08c379a00000000000000000000000000000000000000000000000000000000081526004018080602001828103825260198152602001807f5769746864726177616c20706861736520697320656e6465640000000000000081525060200191505060405180910390fd5b6000601360003373ffffffffffffffffffffffffffffffffffffffff1673ffffffffffffffffffffffffffffffffffffffff1681526020019081526020016000206003015411151561194d576040517f08c379a00000000000000000000000000000000000000000000000000000000081526004018080602001828103825260268152602001807f596f7520646f6e2774206861766520616e79206465706f73697420746f20776981526020017f746864726177000000000000000000000000000000000000000000000000000081525060400191505060405180910390fd5b60006002601360003373ffffffffffffffffffffffffffffffffffffffff1673ffffffffffffffffffffffffffffffffffffffff1681526020019081526020016000206003015481151561199d57fe5b049050600081601360003373ffffffffffffffffffffffffffffffffffffffff1673ffffffffffffffffffffffffffffffffffffffff168152602001908152602001600020600301540390506000601360003373ffffffffffffffffffffffffffffffffffffffff1673ffffffffffffffffffffffffffffffffffffffff168152602001908152602001600020600301819055507fe77c6e79e6e29c0d19961bf68269998b3c16b233806a74107f327a31c5eca3293383600060030160009054906101000a900473ffffffffffffffffffffffffffffffffffffffff1684604051808573ffffffffffffffffffffffffffffffffffffffff1673ffffffffffffffffffffffffffffffffffffffff1681526020018481526020018373ffffffffffffffffffffffffffffffffffffffff1673ffffffffffffffffffffffffffffffffffffffff16815260200182815260200194505050505060405180910390a1600060030160009054906101000a900473ffffffffffffffffffffffffffffffffffffffff1673ffffffffffffffffffffffffffffffffffffffff166108fc829081150290604051600060405180830381858888f19350505050158015611b68573d6000803e3d6000fd5b503373ffffffffffffffffffffffffffffffffffffffff166108fc839081150290604051600060405180830381858888f19350505050158015611baf573d6000803e3d6000fd5b505050565b600060020160009054906101000a900473ffffffffffffffffffffffffffffffffffffffff1673ffffffffffffffffffffffffffffffffffffffff163373ffffffffffffffffffffffffffffffffffffffff16141515611ca2576040517f08c379a000000000000000000000000000000000000000000000000000000000815260040180806020018281038252602c8152602001807f4f6e6c79207468652061756374696f6e20686f7573652063616e2072756e207481526020017f6869732066756e6374696f6e000000000000000000000000000000000000000081525060400191505060405180910390fd5b60026004811115611caf57fe5b600860009054906101000a900460ff166004811115611cca57fe5b141515611d65576040517f08c379a00000000000000000000000000000000000000000000000000000000081526004018080602001828103825260298152602001807f596f752063616e2774207374617274206f70656e696e67206265666f7265207781526020017f69746864726177616c000000000000000000000000000000000000000000000081525060400191505060405180910390fd5b600d546009544303111515611e08576040517f08c379a00000000000000000000000000000000000000000000000000000000081526004018080602001828103825260258152602001807f436f6d6d69746d656e7420706572696f64206973206e6f742066696e6973686581526020017f642079657400000000000000000000000000000000000000000000000000000081525060400191505060405180910390fd5b6003600860006101000a81548160ff02191690836004811115611e2757fe5b0217905550436009819055507fe884e87cca623860f1ac029c5df020e7b7ebad72eab657701673da4cf3e9046160405160405180910390a1565b8173ffffffffffffffffffffffffffffffffffffffff166108fc829081150290604051600060405180830381858888f19350505050158015611ea7573d6000803e3d6000fd5b505050565b60806040519081016040528060008152602001600080191681526020016000801916815260200160008152509056fea165627a7a72305820a9fb0408fd9dca36b5199425f58044b6326fb9ec96139db4395bfbc7d5537199002960806040523480156200001157600080fd5b50604051620012d6380380620012d6833981018060405260c08110156200003757600080fd5b81019080805190602001909291908051906020019092919080516401000000008111156200006457600080fd5b828101905060208101848111156200007b57600080fd5b81518560018202830111640100000000821117156200009957600080fd5b505092919060200180519060200190929190805190602001909291908051906020019092919050505060008311151562000161576040517f08c379a000000000000000000000000000000000000000000000000000000000815260040180806020018281038252602a8152602001807f526573657276652070726963652073686f756c6420626520677265617465722081526020017f7468616e207a65726f2e0000000000000000000000000000000000000000000081525060400191505060405180910390fd5b8282111515620001ff576040517f08c379a000000000000000000000000000000000000000000000000000000000815260040180806020018281038252603a8152602001807f54686520696e697469616c2070726963652073686f756c64206265206772656181526020017f746572207468616e20746865207265736572766520707269636500000000000081525060400191505060405180910390fd5b85600060020160006101000a81548173ffffffffffffffffffffffffffffffffffffffff021916908373ffffffffffffffffffffffffffffffffffffffff16021790555084600060030160006101000a81548173ffffffffffffffffffffffffffffffffffffffff021916908373ffffffffffffffffffffffffffffffffffffffff1602179055508360006004019080519060200190620002a29291906200038b565b506040805190810160405280600581526020017f4475746368000000000000000000000000000000000000000000000000000000815250600080019080519060200190620002f29291906200038b565b50436000600101819055506000600d60146101000a81548160ff021916908360038111156200031d57fe5b021790555082600a8190555081600b8190555081600c8190555080600d60006101000a81548173ffffffffffffffffffffffffffffffffffffffff021916908373ffffffffffffffffffffffffffffffffffffffff160217905550436008819055505050505050506200043a565b828054600181600116156101000203166002900490600052602060002090601f016020900481019282601f10620003ce57805160ff1916838001178555620003ff565b82800160010185558215620003ff579182015b82811115620003fe578251825591602001919060010190620003e1565b5b5090506200040e919062000412565b5090565b6200043791905b808211156200043357600081600090555060010162000419565b5090565b90565b610e8c806200044a6000396000f3fe608060405260043610610072576000357c0100000000000000000000000000000000000000000000000000000000900480631998aeef146100775780634bb278f314610081578063605fed87146100985780636cc09081146100af5780637284e416146100da578063c19d93fb14610284575b600080fd5b61007f6102bd565b005b34801561008d57600080fd5b50610096610438565b005b3480156100a457600080fd5b506100ad6107d6565b005b3480156100bb57600080fd5b506100c4610a5f565b6040518082815260200191505060405180910390f35b3480156100e657600080fd5b506100ef610b72565b60405180806020018981526020018873ffffffffffffffffffffffffffffffffffffffff1673ffffffffffffffffffffffffffffffffffffffff1681526020018773ffffffffffffffffffffffffffffffffffffffff1673ffffffffffffffffffffffffffffffffffffffff168152602001806020018681526020018573ffffffffffffffffffffffffffffffffffffffff1673ffffffffffffffffffffffffffffffffffffffff16815260200184815260200183810383528b818151815260200191508051906020019080838360005b838110156101db5780820151818401526020810190506101c0565b50505050905090810190601f1680156102085780820380516001836020036101000a031916815260200191505b50838103825287818151815260200191508051906020019080838360005b83811015610241578082015181840152602081019050610226565b50505050905090810190601f16801561026e5780820380516001836020036101000a031916815260200191505b509a505050505050505050505060405180910390f35b34801561029057600080fd5b50610299610d38565b604051808260038111156102a957fe5b60ff16815260200191505060405180910390f35b600160038111156102ca57fe5b600d60149054906101000a900460ff1660038111156102e557fe5b14151561035a576040517f08c379a000000000000000000000000000000000000000000000000000000000815260040180806020018281038252601f8152602001807f5468697320636f6e7472616374206973206e6f7420616374697665207965740081525060200191505060405180910390fd5b610362610a5f565b34101515156103d9576040517f08c379a00000000000000000000000000000000000000000000000000000000081526004018080602001828103825260208152602001807f5468652076616c75652073656e74206973206e6f742073756666696369656e7481525060200191505060405180910390fd5b33600060060160006101000a81548173ffffffffffffffffffffffffffffffffffffffff021916908373ffffffffffffffffffffffffffffffffffffffff1602179055503460006007018190555043600981905550610436610d4b565b565b600060020160009054906101000a900473ffffffffffffffffffffffffffffffffffffffff1673ffffffffffffffffffffffffffffffffffffffff163373ffffffffffffffffffffffffffffffffffffffff16141515610526576040517f08c379a000000000000000000000000000000000000000000000000000000000815260040180806020018281038252602c8152602001807f4f6e6c79207468652061756374696f6e20686f7573652063616e2072756e207481526020017f6869732066756e6374696f6e000000000000000000000000000000000000000081525060400191505060405180910390fd5b6002600381111561053357fe5b600d60149054906101000a900460ff16600381111561054e57fe5b1415156105e9576040517f08c379a000000000000000000000000000000000000000000000000000000000815260040180806020018281038252602f8152602001807f596f752063616e27742066696e616c697a65206120636f6e747261637420626581526020017f666f72652076616c69646174696f6e000000000000000000000000000000000081525060400191505060405180910390fd5b600c600954430311151561068b576040517f08c379a000000000000000000000000000000000000000000000000000000000815260040180806020018281038252603f8152602001807f466f7220736563757269747920726561736f6e732c20796f75206e656564207481526020017f6f207761697420746f2076616c69646174652074686520636f6e74726163740081525060400191505060405180910390fd5b6003600d60146101000a81548160ff021916908360038111156106aa57fe5b02179055507ff695043c68d141bf7715a80c7c181a21c469846be41ff74c864e392ba7b9c888600060060160009054906101000a900473ffffffffffffffffffffffffffffffffffffffff166000600701543073ffffffffffffffffffffffffffffffffffffffff1631604051808473ffffffffffffffffffffffffffffffffffffffff1673ffffffffffffffffffffffffffffffffffffffff168152602001838152602001828152602001935050505060405180910390a1600060030160009054906101000a900473ffffffffffffffffffffffffffffffffffffffff1673ffffffffffffffffffffffffffffffffffffffff166108fc6000600701549081150290604051600060405180830381858888f193505050501580156107d3573d6000803e3d6000fd5b50565b600060020160009054906101000a900473ffffffffffffffffffffffffffffffffffffffff1673ffffffffffffffffffffffffffffffffffffffff163373ffffffffffffffffffffffffffffffffffffffff161415156108c4576040517f08c379a000000000000000000000000000000000000000000000000000000000815260040180806020018281038252602c8152602001807f4f6e6c79207468652061756374696f6e20686f7573652063616e2072756e207481526020017f6869732066756e6374696f6e000000000000000000000000000000000000000081525060400191505060405180910390fd5b600060038111156108d157fe5b600d60149054906101000a900460ff1660038111156108ec57fe5b141515610987576040517f08c379a00000000000000000000000000000000000000000000000000000000081526004018080602001828103825260388152602001807f546f2061637469766174652074686520636f6e747261637420796f75206d757381526020017f7420626520696e2074686520477261636520506572696f64000000000000000081525060400191505060405180910390fd5b60146008544303111515610a03576040517f08c379a00000000000000000000000000000000000000000000000000000000081526004018080602001828103825260208152602001807f477261636520706572696f64206973206e6f742066696e69736865642079657481525060200191505060405180910390fd5b6001600d60146101000a81548160ff02191690836003811115610a2257fe5b0217905550436000600501819055507fee2679bc2382e067cc3dfbda872852b5b1702b359c1fd6ce272c32dae5bacabf60405160405180910390a1565b600080436000600501540390506000600d60009054906101000a900473ffffffffffffffffffffffffffffffffffffffff1673ffffffffffffffffffffffffffffffffffffffff16635cf4ee91600c54846000036040518363ffffffff167c0100000000000000000000000000000000000000000000000000000000028152600401808381526020018281526020019250505060206040518083038186803b158015610b0a57600080fd5b505afa158015610b1e573d6000803e3d6000fd5b505050506040513d6020811015610b3457600080fd5b81019080805190602001909291905050509050600a5481111515610b6057600a54600c81905550610b68565b80600c819055505b600c549250505090565b6000806000018054600181600116156101000203166002900480601f016020809104026020016040519081016040528092919081815260200182805460018160011615610100020316600290048015610c0c5780601f10610be157610100808354040283529160200191610c0c565b820191906000526020600020905b815481529060010190602001808311610bef57829003601f168201915b5050505050908060010154908060020160009054906101000a900473ffffffffffffffffffffffffffffffffffffffff16908060030160009054906101000a900473ffffffffffffffffffffffffffffffffffffffff1690806004018054600181600116156101000203166002900480601f016020809104026020016040519081016040528092919081815260200182805460018160011615610100020316600290048015610cfc5780601f10610cd157610100808354040283529160200191610cfc565b820191906000526020600020905b815481529060010190602001808311610cdf57829003601f168201915b5050505050908060050154908060060160009054906101000a900473ffffffffffffffffffffffffffffffffffffffff16908060070154905088565b600d60149054906101000a900460ff1681565b60016003811115610d5857fe5b600d60149054906101000a900460ff166003811115610d7357fe5b141515610e0e576040517f08c379a00000000000000000000000000000000000000000000000000000000081526004018080602001828103825260328152602001807f596f752063616e27742076616c6964617465206120636f6e747261637420626581526020017f666f72652061637469766174696e67206974000000000000000000000000000081525060400191505060405180910390fd5b6002600d60146101000a81548160ff02191690836003811115610e2d57fe5b02179055507f1be74661a60e254c7e358b393f2c9e8c7a90bf84248015d6b022c4c40d50893160405160405180910390a156fea165627a7a723058207e56c78d38ec37d62f867f5b70b0cce5777450131989faf470f0d13d12f1ec5b0029a165627a7a72305820ffb00b9597612cbb9f8811557d46b5cdae7816e210150496169e84e5cb392b880029",
  "source": "pragma solidity ^ 0.5.1;\r\n\r\nimport \"./DutchAuction.sol\";\r\nimport \"./VickreyAuction.sol\";\r\n\r\n/// @title Auction House contract\r\n/// @author Andrea Bruno 585457\r\n\r\n/// @notice This contract implements the shared functionalities between the Dutch and Vickrey auction.\r\n/// @dev The following comments are written using the Solidity NatSpec Format.\r\n\r\n\r\ncontract AuctionHouse {\r\n    \r\n    uint fees = 0.01 ether;\r\n    \r\n    address[] public auctions;\r\n    uint public num_auctions;\r\n\r\n    address payable houseOwner;\r\n    \r\n    event newAuctionAvailable(string _type, address _address);\r\n    \r\n    constructor() public {\r\n        houseOwner = msg.sender;\r\n    }\r\n    \r\n    modifier onlyOwner {\r\n        require(msg.sender == houseOwner);\r\n        _;\r\n    }\r\n\r\n    modifier payFees() {\r\n        require(msg.value == fees, \"Please send a correct value\");\r\n        _;\r\n    }\r\n\r\n    function newDutch(\r\n        string memory _itemName,\r\n        uint _reservePrice,\r\n        uint _initialPrice,\r\n        Strategy _strategy\r\n    ) public payable payFees{\r\n        DutchAuction dutch = new DutchAuction(houseOwner, msg.sender, _itemName, _reservePrice, _initialPrice, _strategy);\r\n        auctions.push(address(dutch));\r\n        num_auctions += 1;\r\n        emit newAuctionAvailable(\"Dutch\", address(dutch));\r\n    }\r\n    // ******** TEST **********\r\n    // house = await AuctionHouse.deployed()\r\n    // slow = await SlowStrategy.deployed()\r\n    // accounts = await web3.eth.getAccounts()\r\n    // house.newDutch('XXX',100,100, slow.address, {value: 10000000000000000, from: accounts[0]})\r\n\r\n\r\n    \r\n    \r\n    function newVickrey(\r\n        string memory _itemName,\r\n        uint _reservePrice,\r\n        uint _min_deposit,\r\n        uint _commitment_len,\r\n        uint _withdrawal_len,\r\n        uint _opening_len\r\n    )  public payable payFees{\r\n        VickreyAuction vickrey = new VickreyAuction(houseOwner, msg.sender, _itemName, _reservePrice, _min_deposit, _commitment_len, _withdrawal_len, _opening_len);\r\n        auctions.push(address(vickrey));\r\n        num_auctions += 1;\r\n        emit newAuctionAvailable(\"Vickrey\", address(vickrey));\r\n    }\r\n    // ******** TEST **********\r\n    // house = await AuctionHouse.deployed()\r\n    // accounts = await web3.eth.getAccounts()\r\n    // house.newVickrey('aaa',100,100,10,10,10, {value: 10000000000000000, from: accounts[0]})\r\n\r\n\r\n    function getFees () public onlyOwner {\r\n        houseOwner.transfer(address(this).balance);\r\n    }\r\n}\r\n",
  "sourcePath": "C:\\workspace\\dApp_SmartAuction\\contracts\\AuctionHouse.sol",
  "compiler": {
    "name": "solc",
    "version": "0.5.1+commit.c8a2cb62.Emscripten.clang"
  },
  "schemaVersion": "3.4.16",
  "updatedAt": "2023-12-01T15:14:55.758Z",
  "devdoc": {
    "details": "The following comments are written using the Solidity NatSpec Format.",
    "methods": {}
  },
  "userdoc": {
    "methods": {}
  }
}