{
  "contractName": "Bid",
  "abi": [
    {
      "constant": true,
      "inputs": [
        {
          "name": "_bidValue",
          "type": "uint256"
        }
      ],
      "name": "generate",
      "outputs": [
        {
          "name": "",
          "type": "uint256"
        },
        {
          "name": "",
          "type": "bytes32"
        },
        {
          "name": "",
          "type": "bytes32"
        }
      ],
      "payable": false,
      "stateMutability": "view",
      "type": "function"
    }
  ],
  "bytecode": "0x608060405234801561001057600080fd5b50610142806100206000396000f3fe60806040526004361061003b576000357c0100000000000000000000000000000000000000000000000000000000900480634a7dd52314610040575b600080fd5b34801561004c57600080fd5b506100796004803603602081101561006357600080fd5b810190808035906020019092919050505061009d565b60405180848152602001838152602001828152602001935050505060405180910390f35b600080600080600080869250426040516020018082815260200191505060405160208183030381529060405280519060200120915086826040516020018083815260200182815260200192505050604051602081830303815290604052805190602001209050828282955095509550505050919390925056fea165627a7a7230582018ab5c009e54eb33bde2dc6f85ad09cf46c28eaf8d99be12874c4e8272e660060029",
  "source": "pragma solidity ^ 0.5.1;\r\n\r\n/// @title Bid contract\r\n/// @author Andrea Bruno 585457\r\n/// @notice This contract helps people in making bids. If deployed locally, no gas is required.\r\n/// @dev The following comments are written using the Solidity NatSpec Format.\r\ncontract Bid {\r\n    /// @notice This function generates the nonce and the hash needed in the Vickrey Auction.\r\n    /// @param _bidValue is the desired bid.\r\n    function generate(uint _bidValue) public view returns(uint, bytes32, bytes32) {\r\n        uint value;\r\n        bytes32 nonce;\r\n        bytes32 hash;\r\n\r\n        value = _bidValue;\r\n        nonce = keccak256(abi.encodePacked(block.timestamp));\r\n        hash = keccak256(abi.encodePacked(_bidValue, nonce));\r\n\r\n        return (value, nonce, hash);\r\n    }\r\n}\r\n",
  "sourcePath": "C:\\workspace\\dApp_SmartAuction\\contracts\\Bid.sol",
  "compiler": {
    "name": "solc",
    "version": "0.5.1+commit.c8a2cb62.Emscripten.clang"
  },
  "schemaVersion": "3.4.16",
  "updatedAt": "2024-01-03T11:33:01.251Z",
  "devdoc": {
    "details": "The following comments are written using the Solidity NatSpec Format.",
    "methods": {
      "generate(uint256)": {
        "params": {
          "_bidValue": "is the desired bid."
        }
      }
    }
  },
  "userdoc": {
    "methods": {}
  }
}