{
  "contractName": "DutchAuction",
  "abi": [
    {
      "constant": true,
      "inputs": [],
      "name": "description",
      "outputs": [
        {
          "name": "category",
          "type": "string"
        },
        {
          "name": "deployBlock",
          "type": "uint256"
        },
        {
          "name": "house",
          "type": "address"
        },
        {
          "name": "seller",
          "type": "address"
        },
        {
          "name": "itemName",
          "type": "string"
        },
        {
          "name": "startBlock",
          "type": "uint256"
        },
        {
          "name": "winnerAddress",
          "type": "address"
        },
        {
          "name": "winnerBid",
          "type": "uint256"
        }
      ],
      "payable": false,
      "stateMutability": "view",
      "type": "function"
    },
    {
      "constant": true,
      "inputs": [],
      "name": "state",
      "outputs": [
        {
          "name": "",
          "type": "uint8"
        }
      ],
      "payable": false,
      "stateMutability": "view",
      "type": "function"
    },
    {
      "inputs": [
        {
          "name": "_houseOwner",
          "type": "address"
        },
        {
          "name": "_seller",
          "type": "address"
        },
        {
          "name": "_itemName",
          "type": "string"
        },
        {
          "name": "_reservePrice",
          "type": "uint256"
        },
        {
          "name": "_initialPrice",
          "type": "uint256"
        },
        {
          "name": "_strategy",
          "type": "address"
        }
      ],
      "payable": false,
      "stateMutability": "nonpayable",
      "type": "constructor"
    },
    {
      "anonymous": false,
      "inputs": [],
      "name": "auctionValidation",
      "type": "event"
    },
    {
      "anonymous": false,
      "inputs": [],
      "name": "auctionStarted",
      "type": "event"
    },
    {
      "anonymous": false,
      "inputs": [
        {
          "indexed": false,
          "name": "winnerAddress",
          "type": "address"
        },
        {
          "indexed": false,
          "name": "winnerBid",
          "type": "uint256"
        },
        {
          "indexed": false,
          "name": "surplusFounds",
          "type": "uint256"
        }
      ],
      "name": "auctionFinished",
      "type": "event"
    },
    {
      "constant": false,
      "inputs": [],
      "name": "activateAuction",
      "outputs": [],
      "payable": false,
      "stateMutability": "nonpayable",
      "type": "function"
    },
    {
      "constant": false,
      "inputs": [],
      "name": "getActualPrice",
      "outputs": [
        {
          "name": "",
          "type": "uint256"
        }
      ],
      "payable": false,
      "stateMutability": "nonpayable",
      "type": "function"
    },
    {
      "constant": false,
      "inputs": [],
      "name": "bid",
      "outputs": [],
      "payable": true,
      "stateMutability": "payable",
      "type": "function"
    },
    {
      "constant": false,
      "inputs": [],
      "name": "finalize",
      "outputs": [],
      "payable": false,
      "stateMutability": "nonpayable",
      "type": "function"
    }
  ],
  "bytecode": "0x60806040523480156200001157600080fd5b50604051620012d6380380620012d6833981018060405260c08110156200003757600080fd5b81019080805190602001909291908051906020019092919080516401000000008111156200006457600080fd5b828101905060208101848111156200007b57600080fd5b81518560018202830111640100000000821117156200009957600080fd5b505092919060200180519060200190929190805190602001909291908051906020019092919050505060008311151562000161576040517f08c379a000000000000000000000000000000000000000000000000000000000815260040180806020018281038252602a8152602001807f526573657276652070726963652073686f756c6420626520677265617465722081526020017f7468616e207a65726f2e0000000000000000000000000000000000000000000081525060400191505060405180910390fd5b8282111515620001ff576040517f08c379a000000000000000000000000000000000000000000000000000000000815260040180806020018281038252603a8152602001807f54686520696e697469616c2070726963652073686f756c64206265206772656181526020017f746572207468616e20746865207265736572766520707269636500000000000081525060400191505060405180910390fd5b85600060020160006101000a81548173ffffffffffffffffffffffffffffffffffffffff021916908373ffffffffffffffffffffffffffffffffffffffff16021790555084600060030160006101000a81548173ffffffffffffffffffffffffffffffffffffffff021916908373ffffffffffffffffffffffffffffffffffffffff1602179055508360006004019080519060200190620002a29291906200038b565b506040805190810160405280600581526020017f4475746368000000000000000000000000000000000000000000000000000000815250600080019080519060200190620002f29291906200038b565b50436000600101819055506000600d60146101000a81548160ff021916908360038111156200031d57fe5b021790555082600a8190555081600b8190555081600c8190555080600d60006101000a81548173ffffffffffffffffffffffffffffffffffffffff021916908373ffffffffffffffffffffffffffffffffffffffff160217905550436008819055505050505050506200043a565b828054600181600116156101000203166002900490600052602060002090601f016020900481019282601f10620003ce57805160ff1916838001178555620003ff565b82800160010185558215620003ff579182015b82811115620003fe578251825591602001919060010190620003e1565b5b5090506200040e919062000412565b5090565b6200043791905b808211156200043357600081600090555060010162000419565b5090565b90565b610e8c806200044a6000396000f3fe608060405260043610610072576000357c0100000000000000000000000000000000000000000000000000000000900480631998aeef146100775780634bb278f314610081578063605fed87146100985780636cc09081146100af5780637284e416146100da578063c19d93fb14610284575b600080fd5b61007f6102bd565b005b34801561008d57600080fd5b50610096610438565b005b3480156100a457600080fd5b506100ad6107d6565b005b3480156100bb57600080fd5b506100c4610a5f565b6040518082815260200191505060405180910390f35b3480156100e657600080fd5b506100ef610b72565b60405180806020018981526020018873ffffffffffffffffffffffffffffffffffffffff1673ffffffffffffffffffffffffffffffffffffffff1681526020018773ffffffffffffffffffffffffffffffffffffffff1673ffffffffffffffffffffffffffffffffffffffff168152602001806020018681526020018573ffffffffffffffffffffffffffffffffffffffff1673ffffffffffffffffffffffffffffffffffffffff16815260200184815260200183810383528b818151815260200191508051906020019080838360005b838110156101db5780820151818401526020810190506101c0565b50505050905090810190601f1680156102085780820380516001836020036101000a031916815260200191505b50838103825287818151815260200191508051906020019080838360005b83811015610241578082015181840152602081019050610226565b50505050905090810190601f16801561026e5780820380516001836020036101000a031916815260200191505b509a505050505050505050505060405180910390f35b34801561029057600080fd5b50610299610d38565b604051808260038111156102a957fe5b60ff16815260200191505060405180910390f35b600160038111156102ca57fe5b600d60149054906101000a900460ff1660038111156102e557fe5b14151561035a576040517f08c379a000000000000000000000000000000000000000000000000000000000815260040180806020018281038252601f8152602001807f5468697320636f6e7472616374206973206e6f7420616374697665207965740081525060200191505060405180910390fd5b610362610a5f565b34101515156103d9576040517f08c379a00000000000000000000000000000000000000000000000000000000081526004018080602001828103825260208152602001807f5468652076616c75652073656e74206973206e6f742073756666696369656e7481525060200191505060405180910390fd5b33600060060160006101000a81548173ffffffffffffffffffffffffffffffffffffffff021916908373ffffffffffffffffffffffffffffffffffffffff1602179055503460006007018190555043600981905550610436610d4b565b565b600060020160009054906101000a900473ffffffffffffffffffffffffffffffffffffffff1673ffffffffffffffffffffffffffffffffffffffff163373ffffffffffffffffffffffffffffffffffffffff16141515610526576040517f08c379a000000000000000000000000000000000000000000000000000000000815260040180806020018281038252602c8152602001807f4f6e6c79207468652061756374696f6e20686f7573652063616e2072756e207481526020017f6869732066756e6374696f6e000000000000000000000000000000000000000081525060400191505060405180910390fd5b6002600381111561053357fe5b600d60149054906101000a900460ff16600381111561054e57fe5b1415156105e9576040517f08c379a000000000000000000000000000000000000000000000000000000000815260040180806020018281038252602f8152602001807f596f752063616e27742066696e616c697a65206120636f6e747261637420626581526020017f666f72652076616c69646174696f6e000000000000000000000000000000000081525060400191505060405180910390fd5b600c600954430311151561068b576040517f08c379a000000000000000000000000000000000000000000000000000000000815260040180806020018281038252603f8152602001807f466f7220736563757269747920726561736f6e732c20796f75206e656564207481526020017f6f207761697420746f2076616c69646174652074686520636f6e74726163740081525060400191505060405180910390fd5b6003600d60146101000a81548160ff021916908360038111156106aa57fe5b02179055507ff695043c68d141bf7715a80c7c181a21c469846be41ff74c864e392ba7b9c888600060060160009054906101000a900473ffffffffffffffffffffffffffffffffffffffff166000600701543073ffffffffffffffffffffffffffffffffffffffff1631604051808473ffffffffffffffffffffffffffffffffffffffff1673ffffffffffffffffffffffffffffffffffffffff168152602001838152602001828152602001935050505060405180910390a1600060030160009054906101000a900473ffffffffffffffffffffffffffffffffffffffff1673ffffffffffffffffffffffffffffffffffffffff166108fc6000600701549081150290604051600060405180830381858888f193505050501580156107d3573d6000803e3d6000fd5b50565b600060020160009054906101000a900473ffffffffffffffffffffffffffffffffffffffff1673ffffffffffffffffffffffffffffffffffffffff163373ffffffffffffffffffffffffffffffffffffffff161415156108c4576040517f08c379a000000000000000000000000000000000000000000000000000000000815260040180806020018281038252602c8152602001807f4f6e6c79207468652061756374696f6e20686f7573652063616e2072756e207481526020017f6869732066756e6374696f6e000000000000000000000000000000000000000081525060400191505060405180910390fd5b600060038111156108d157fe5b600d60149054906101000a900460ff1660038111156108ec57fe5b141515610987576040517f08c379a00000000000000000000000000000000000000000000000000000000081526004018080602001828103825260388152602001807f546f2061637469766174652074686520636f6e747261637420796f75206d757381526020017f7420626520696e2074686520477261636520506572696f64000000000000000081525060400191505060405180910390fd5b60146008544303111515610a03576040517f08c379a00000000000000000000000000000000000000000000000000000000081526004018080602001828103825260208152602001807f477261636520706572696f64206973206e6f742066696e69736865642079657481525060200191505060405180910390fd5b6001600d60146101000a81548160ff02191690836003811115610a2257fe5b0217905550436000600501819055507fee2679bc2382e067cc3dfbda872852b5b1702b359c1fd6ce272c32dae5bacabf60405160405180910390a1565b600080436000600501540390506000600d60009054906101000a900473ffffffffffffffffffffffffffffffffffffffff1673ffffffffffffffffffffffffffffffffffffffff16635cf4ee91600c54846000036040518363ffffffff167c0100000000000000000000000000000000000000000000000000000000028152600401808381526020018281526020019250505060206040518083038186803b158015610b0a57600080fd5b505afa158015610b1e573d6000803e3d6000fd5b505050506040513d6020811015610b3457600080fd5b81019080805190602001909291905050509050600a5481111515610b6057600a54600c81905550610b68565b80600c819055505b600c549250505090565b6000806000018054600181600116156101000203166002900480601f016020809104026020016040519081016040528092919081815260200182805460018160011615610100020316600290048015610c0c5780601f10610be157610100808354040283529160200191610c0c565b820191906000526020600020905b815481529060010190602001808311610bef57829003601f168201915b5050505050908060010154908060020160009054906101000a900473ffffffffffffffffffffffffffffffffffffffff16908060030160009054906101000a900473ffffffffffffffffffffffffffffffffffffffff1690806004018054600181600116156101000203166002900480601f016020809104026020016040519081016040528092919081815260200182805460018160011615610100020316600290048015610cfc5780601f10610cd157610100808354040283529160200191610cfc565b820191906000526020600020905b815481529060010190602001808311610cdf57829003601f168201915b5050505050908060050154908060060160009054906101000a900473ffffffffffffffffffffffffffffffffffffffff16908060070154905088565b600d60149054906101000a900460ff1681565b60016003811115610d5857fe5b600d60149054906101000a900460ff166003811115610d7357fe5b141515610e0e576040517f08c379a00000000000000000000000000000000000000000000000000000000081526004018080602001828103825260328152602001807f596f752063616e27742076616c6964617465206120636f6e747261637420626581526020017f666f72652061637469766174696e67206974000000000000000000000000000081525060400191505060405180910390fd5b6002600d60146101000a81548160ff02191690836003811115610e2d57fe5b02179055507f1be74661a60e254c7e358b393f2c9e8c7a90bf84248015d6b022c4c40d50893160405160405180910390a156fea165627a7a723058207e56c78d38ec37d62f867f5b70b0cce5777450131989faf470f0d13d12f1ec5b0029",
  "source": "pragma solidity ^ 0.5.1;\r\n\r\nimport \"./Auction.sol\";\r\nimport \"./Strategy.sol\";\r\n\r\n/// @title Dutch Auction contract\r\n/// @author Andrea Bruno 585457\r\n/// @notice This contract implements the Dutch auction functionalities.\r\n/// @dev The following comments are written using the Solidity NatSpec Format.\r\ncontract DutchAuction is Auction {\r\n\r\n    /// @dev This variable identifies the block number at the moment of contract deploy.\r\n    uint creationBlock;\r\n\r\n    /// @dev This variable identifies the block number of the winner bid.\r\n    uint winnerBlock;\r\n\r\n    /// @dev The reserve price decided by the seller.\r\n    uint reservePrice;\r\n\r\n    /// @dev The initial price decided by the seller.\r\n    uint initialPrice;\r\n\r\n    /// @dev The current price of the item.\r\n    uint actualPrice;\r\n\r\n    /// @dev To decrease the price a strategy is needed. Check the contract `Strategy` to learn more.\r\n    Strategy strategy;\r\n\r\n    /// @dev Those are the possible states of the auction.\r\n    enum State {\r\n        GracePeriod,\r\n        Active,\r\n        Validating,\r\n        Finished\r\n    }\r\n    State public state;\r\n\r\n    /// @notice This event communicate that the auction is in validation.\r\n    event auctionValidation();\r\n\r\n    /// @notice The (ex) constructor of the Dutch auction. See FACTORY PATTERN...\r\n    /// @param _itemName is a short description of what is going to be sold.\r\n    /// @param _reservePrice is the reserve price decided by the seller.\r\n    /// @param _initialPrice is the initial price decided by the seller.\r\n    /// @param _strategy the address of a `Strategy` contract.\r\n    constructor (\r\n        address payable _houseOwner,\r\n        address payable _seller,\r\n        string memory _itemName,\r\n        uint _reservePrice,\r\n        uint _initialPrice,\r\n        Strategy _strategy\r\n    ) public{\r\n        \r\n        require(_reservePrice > 0, \"Reserve price should be greater than zero.\");\r\n        require(_initialPrice > _reservePrice, \"The initial price should be greater than the reserve price\");\r\n        \r\n        // Set into the description the auction house address,\r\n        description.house = _houseOwner;\r\n        // the address of the seller,\r\n        description.seller = _seller;\r\n        // the name of the item\r\n        description.itemName = _itemName;\r\n        // the category of the Auction\r\n        description.category = \"Dutch\";\r\n        // and the block number at deploy time\r\n        description.deployBlock = block.number;\r\n\r\n\r\n        //Set state into \"grace period\"\r\n        state = State.GracePeriod;\r\n\r\n        reservePrice = _reservePrice;\r\n        initialPrice = _initialPrice;\r\n        actualPrice = _initialPrice;\r\n        strategy = _strategy;\r\n\r\n        //Remember the block number at the moment of contract deploy.\r\n        creationBlock = block.number;\r\n    }\r\n\r\n    /// @notice This function will activate the auction.\r\n    /// @dev Only the seller can invoke it.\r\n    function activateAuction() public onlyHouse {\r\n\r\n        // In order to activate the auction we need to be in the \"grace period\"\r\n        require(state == State.GracePeriod, \"To activate the contract you must be in the Grace Period\");\r\n\r\n        // and also 5 minutes (20 blocks) must be elapsed.\r\n        require(block.number - creationBlock > 20, \"Grace period is not finished yet\");\r\n\r\n        // Set the current state to \"Active\".\r\n        state = State.Active;\r\n\r\n        // Set into the description the starting block of the auction.\r\n        description.startBlock = block.number;\r\n\r\n        // Communicate that the auction is started.\r\n        emit auctionStarted();\r\n    }\r\n\r\n    /// @notice This function will update the price.\r\n    /// @dev Since it is public, the gas will be spent by the people willing to know the current price.\r\n    /// @return The updated current price.\r\n    function getActualPrice() public returns(uint) {\r\n\r\n        // Compute the delta between the block in which the auction is started and the actual one.\r\n        uint deltaBlocks = description.startBlock - block.number;\r\n\r\n        // Let the strategy compute the price.\r\n        uint tmp = strategy.getPrice(actualPrice, -deltaBlocks);\r\n\r\n        // If the price computed is smaller than the reserve price\r\n        // set the actual price to the reserve price\r\n        // otherwise everything is fine.\r\n        if (tmp <= reservePrice) {\r\n            actualPrice = reservePrice;\r\n        } else {\r\n            actualPrice = tmp;\r\n        }\r\n\r\n        return actualPrice;\r\n    }\r\n\r\n    /// @notice Use this function to make a bid.\r\n    /// @dev The bidder should send a value greater or equal than the actual price.\r\n    /// @dev Finally, the auction passes in a \"validation\" state, to avoid inconsistencies due to forks on the blockchain\r\n    function bid() public payable {\r\n\r\n        // To maka a bid the auction need to be active.\r\n        require(state == State.Active, \"This contract is not active yet\");\r\n\r\n        // The bidder should send an appropriate value.\r\n        require(msg.value >= getActualPrice(), \"The value sent is not sufficient\");\r\n\r\n        description.winnerAddress = msg.sender;\r\n        description.winnerBid = msg.value;\r\n\r\n        winnerBlock = block.number;\r\n\r\n        //Activate the validation\r\n        validateAuction();\r\n    }\r\n\r\n\r\n\r\n    /// @dev This function allow to pass into a \"validation\" state.\r\n    function validateAuction() internal {\r\n        require(state == State.Active, \"You can't validate a contract before activating it\");\r\n        state = State.Validating;\r\n        emit auctionValidation();\r\n    }\r\n\r\n\r\n    /// @notice The following function finalize the contract and send the ether to the seller of the item.\r\n    /// @dev The security pattern Checks-Effects-Interaction is respected.\r\n    function finalize() public onlyHouse {\r\n        require(state == State.Validating, \"You can't finalize a contract before validation\");\r\n        require(block.number - winnerBlock > 12, \"For security reasons, you need to wait to validate the contract\");\r\n\r\n        state = State.Finished;\r\n\r\n        // Emit the event on the blockchain\r\n        emit auctionFinished(description.winnerAddress, description.winnerBid, address(this).balance);\r\n\r\n        // Transfer the money to the seller\r\n        description.seller.transfer(description.winnerBid);\r\n    }\r\n}",
  "sourcePath": "C:\\workspace\\dApp_SmartAuction\\contracts\\DutchAuction.sol",
  "compiler": {
    "name": "solc",
    "version": "0.5.1+commit.c8a2cb62.Emscripten.clang"
  },
  "schemaVersion": "3.4.16",
  "updatedAt": "2023-12-01T15:14:55.768Z",
  "devdoc": {
    "details": "The following comments are written using the Solidity NatSpec Format.",
    "methods": {
      "activateAuction()": {
        "details": "Only the seller can invoke it."
      },
      "bid()": {
        "details": "Finally, the auction passes in a \"validation\" state, to avoid inconsistencies due to forks on the blockchain"
      },
      "constructor": {
        "params": {
          "_strategy": "the address of a `Strategy` contract."
        }
      },
      "finalize()": {
        "details": "The security pattern Checks-Effects-Interaction is respected."
      },
      "getActualPrice()": {
        "return": "The updated current price."
      }
    }
  },
  "userdoc": {
    "methods": {}
  }
}