{
  "contractName": "VickreyAuction",
  "abi": [
    {
      "constant": true,
      "inputs": [],
      "name": "min_deposit",
      "outputs": [
        {
          "name": "",
          "type": "uint256"
        }
      ],
      "payable": false,
      "stateMutability": "view",
      "type": "function"
    },
    {
      "constant": true,
      "inputs": [],
      "name": "description",
      "outputs": [
        {
          "name": "category",
          "type": "string"
        },
        {
          "name": "deployBlock",
          "type": "uint256"
        },
        {
          "name": "house",
          "type": "address"
        },
        {
          "name": "seller",
          "type": "address"
        },
        {
          "name": "itemName",
          "type": "string"
        },
        {
          "name": "startBlock",
          "type": "uint256"
        },
        {
          "name": "winnerAddress",
          "type": "address"
        },
        {
          "name": "winnerBid",
          "type": "uint256"
        }
      ],
      "payable": false,
      "stateMutability": "view",
      "type": "function"
    },
    {
      "constant": true,
      "inputs": [],
      "name": "phase",
      "outputs": [
        {
          "name": "",
          "type": "uint8"
        }
      ],
      "payable": false,
      "stateMutability": "view",
      "type": "function"
    },
    {
      "inputs": [
        {
          "name": "_houseOwner",
          "type": "address"
        },
        {
          "name": "_seller",
          "type": "address"
        },
        {
          "name": "_itemName",
          "type": "string"
        },
        {
          "name": "_reservePrice",
          "type": "uint256"
        },
        {
          "name": "_min_deposit",
          "type": "uint256"
        },
        {
          "name": "_commitment_len",
          "type": "uint256"
        },
        {
          "name": "_withdrawal_len",
          "type": "uint256"
        },
        {
          "name": "_opening_len",
          "type": "uint256"
        }
      ],
      "payable": false,
      "stateMutability": "nonpayable",
      "type": "constructor"
    },
    {
      "anonymous": false,
      "inputs": [],
      "name": "withdrawalStarted",
      "type": "event"
    },
    {
      "anonymous": false,
      "inputs": [],
      "name": "openingStarted",
      "type": "event"
    },
    {
      "anonymous": false,
      "inputs": [
        {
          "indexed": false,
          "name": "bidder",
          "type": "address"
        },
        {
          "indexed": false,
          "name": "value",
          "type": "uint256"
        },
        {
          "indexed": false,
          "name": "seller",
          "type": "address"
        },
        {
          "indexed": false,
          "name": "val",
          "type": "uint256"
        }
      ],
      "name": "withdrawalExecuted",
      "type": "event"
    },
    {
      "anonymous": false,
      "inputs": [],
      "name": "auctionStarted",
      "type": "event"
    },
    {
      "anonymous": false,
      "inputs": [
        {
          "indexed": false,
          "name": "winnerAddress",
          "type": "address"
        },
        {
          "indexed": false,
          "name": "winnerBid",
          "type": "uint256"
        },
        {
          "indexed": false,
          "name": "surplusFounds",
          "type": "uint256"
        }
      ],
      "name": "auctionFinished",
      "type": "event"
    },
    {
      "constant": false,
      "inputs": [],
      "name": "activateAuction",
      "outputs": [],
      "payable": false,
      "stateMutability": "nonpayable",
      "type": "function"
    },
    {
      "constant": false,
      "inputs": [
        {
          "name": "_bidHash",
          "type": "bytes32"
        }
      ],
      "name": "bid",
      "outputs": [],
      "payable": true,
      "stateMutability": "payable",
      "type": "function"
    },
    {
      "constant": false,
      "inputs": [],
      "name": "startWithdrawal",
      "outputs": [],
      "payable": false,
      "stateMutability": "nonpayable",
      "type": "function"
    },
    {
      "constant": false,
      "inputs": [],
      "name": "withdrawal",
      "outputs": [],
      "payable": false,
      "stateMutability": "nonpayable",
      "type": "function"
    },
    {
      "constant": false,
      "inputs": [],
      "name": "startOpening",
      "outputs": [],
      "payable": false,
      "stateMutability": "nonpayable",
      "type": "function"
    },
    {
      "constant": false,
      "inputs": [
        {
          "name": "_nonce",
          "type": "bytes32"
        }
      ],
      "name": "open",
      "outputs": [],
      "payable": true,
      "stateMutability": "payable",
      "type": "function"
    },
    {
      "constant": false,
      "inputs": [],
      "name": "finalize",
      "outputs": [],
      "payable": false,
      "stateMutability": "nonpayable",
      "type": "function"
    }
  ],
  "bytecode": "0x60806040526001601260006101000a81548160ff0219169083151502179055503480156200002c57600080fd5b506040516200252e3803806200252e83398101806040526101008110156200005357600080fd5b81019080805190602001909291908051906020019092919080516401000000008111156200008057600080fd5b828101905060208101848111156200009757600080fd5b8151856001820283011164010000000082111715620000b557600080fd5b5050929190602001805190602001909291908051906020019092919080519060200190929190805190602001909291908051906020019092919050505060008511151562000191576040517f08c379a000000000000000000000000000000000000000000000000000000000815260040180806020018281038252602a8152602001807f526573657276652070726963652073686f756c6420626520677265617465722081526020017f7468616e207a65726f2e0000000000000000000000000000000000000000000081525060400191505060405180910390fd5b84841015151562000230576040517f08c379a00000000000000000000000000000000000000000000000000000000081526004018080602001828103825260348152602001807f546865206465706f7369742073686f756c64206265206772656174657220746881526020017f616e20746865207265736572766520707269636500000000000000000000000081525060400191505060405180910390fd5b600083111515620002cf576040517f08c379a00000000000000000000000000000000000000000000000000000000081526004018080602001828103825260358152602001807f546865206c656e676874206f6620636f6d6d69746d656e742073686f756c642081526020017f62652067726561746572207468616e207a65726f2e000000000000000000000081525060400191505060405180910390fd5b6000821115156200036e576040517f08c379a00000000000000000000000000000000000000000000000000000000081526004018080602001828103825260358152602001807f546865206c656e676874206f66207769746864726177616c2073686f756c642081526020017f62652067726561746572207468616e207a65726f2e000000000000000000000081525060400191505060405180910390fd5b6000811115156200040d576040517f08c379a00000000000000000000000000000000000000000000000000000000081526004018080602001828103825260328152602001807f546865206c656e676874206f66206f70656e696e672073686f756c642062652081526020017f67726561746572207468616e207a65726f2e000000000000000000000000000081525060400191505060405180910390fd5b87600060020160006101000a81548173ffffffffffffffffffffffffffffffffffffffff021916908373ffffffffffffffffffffffffffffffffffffffff16021790555086600060030160006101000a81548173ffffffffffffffffffffffffffffffffffffffff021916908373ffffffffffffffffffffffffffffffffffffffff1602179055508560006004019080519060200190620004b092919062000568565b506040805190810160405280600781526020017f5669636b726579000000000000000000000000000000000000000000000000008152506000800190805190602001906200050092919062000568565b50436000600101819055506000600860006101000a81548160ff021916908360048111156200052b57fe5b021790555084600a8190555083600b8190555082600c8190555081600d8190555080600e8190555043600981905550505050505050505062000617565b828054600181600116156101000203166002900490600052602060002090601f016020900481019282601f10620005ab57805160ff1916838001178555620005dc565b82800160010185558215620005dc579182015b82811115620005db578251825591602001919060010190620005be565b5b509050620005eb9190620005ef565b5090565b6200061491905b8082111562000610576000816000905550600101620005f6565b5090565b90565b611f0780620006276000396000f3fe60806040526004361061009e576000357c0100000000000000000000000000000000000000000000000000000000900480634bb278f3146100a35780634d5f811e146100ba578063605fed87146100e55780637284e416146100fc578063957bb1e0146102a6578063b1c9fe6e146102d4578063bc2f8dd81461030d578063d3b3f73a14610324578063d4e9329214610352578063fef06efa14610369575b600080fd5b3480156100af57600080fd5b506100b8610380565b005b3480156100c657600080fd5b506100cf6108c0565b6040518082815260200191505060405180910390f35b3480156100f157600080fd5b506100fa6108c6565b005b34801561010857600080fd5b50610111610b56565b60405180806020018981526020018873ffffffffffffffffffffffffffffffffffffffff1673ffffffffffffffffffffffffffffffffffffffff1681526020018773ffffffffffffffffffffffffffffffffffffffff1673ffffffffffffffffffffffffffffffffffffffff168152602001806020018681526020018573ffffffffffffffffffffffffffffffffffffffff1673ffffffffffffffffffffffffffffffffffffffff16815260200184815260200183810383528b818151815260200191508051906020019080838360005b838110156101fd5780820151818401526020810190506101e2565b50505050905090810190601f16801561022a5780820380516001836020036101000a031916815260200191505b50838103825287818151815260200191508051906020019080838360005b83811015610263578082015181840152602081019050610248565b50505050905090810190601f1680156102905780820380516001836020036101000a031916815260200191505b509a505050505050505050505060405180910390f35b6102d2600480360360208110156102bc57600080fd5b8101908080359060200190929190505050610d1c565b005b3480156102e057600080fd5b506102e9610ff6565b604051808260048111156102f957fe5b60ff16815260200191505060405180910390f35b34801561031957600080fd5b50610322611009565b005b6103506004803603602081101561033a57600080fd5b81019080803590602001909291905050506112b6565b005b34801561035e57600080fd5b50610367611752565b005b34801561037557600080fd5b5061037e611bb4565b005b600060020160009054906101000a900473ffffffffffffffffffffffffffffffffffffffff1673ffffffffffffffffffffffffffffffffffffffff163373ffffffffffffffffffffffffffffffffffffffff1614151561046e576040517f08c379a000000000000000000000000000000000000000000000000000000000815260040180806020018281038252602c8152602001807f4f6e6c79207468652061756374696f6e20686f7573652063616e2072756e207481526020017f6869732066756e6374696f6e000000000000000000000000000000000000000081525060400191505060405180910390fd5b6003600481111561047b57fe5b600860009054906101000a900460ff16600481111561049657fe5b141515610531576040517f08c379a000000000000000000000000000000000000000000000000000000000815260040180806020018281038252602e8152602001807f596f752063616e27742066696e616c697a652074686520636f6e74726163742081526020017f6265666f7265206f70656e696e6700000000000000000000000000000000000081525060400191505060405180910390fd5b600e5460095443031115156105d4576040517f08c379a00000000000000000000000000000000000000000000000000000000081526004018080602001828103825260228152602001807f4f70656e696e6720706572696f64206973206e6f742066696e6973686564207981526020017f657400000000000000000000000000000000000000000000000000000000000081525060400191505060405180910390fd5b600073ffffffffffffffffffffffffffffffffffffffff16600f60009054906101000a900473ffffffffffffffffffffffffffffffffffffffff1673ffffffffffffffffffffffffffffffffffffffff1614151561077f57600f60009054906101000a900473ffffffffffffffffffffffffffffffffffffffff16600060060160006101000a81548173ffffffffffffffffffffffffffffffffffffffff021916908373ffffffffffffffffffffffffffffffffffffffff160217905550601154600060070181905550600f60009054906101000a900473ffffffffffffffffffffffffffffffffffffffff1673ffffffffffffffffffffffffffffffffffffffff166108fc601154601054039081150290604051600060405180830381858888f1935050505015801561070c573d6000803e3d6000fd5b50600060030160009054906101000a900473ffffffffffffffffffffffffffffffffffffffff1673ffffffffffffffffffffffffffffffffffffffff166108fc6000600701549081150290604051600060405180830381858888f1935050505015801561077d573d6000803e3d6000fd5b505b60007364db1b94a0304e4c27de2e758b2f962d09dfe503905060003073ffffffffffffffffffffffffffffffffffffffff163190506004600860006101000a81548160ff021916908360048111156107d357fe5b02179055507ff695043c68d141bf7715a80c7c181a21c469846be41ff74c864e392ba7b9c888600060060160009054906101000a900473ffffffffffffffffffffffffffffffffffffffff1660006007015483604051808473ffffffffffffffffffffffffffffffffffffffff1673ffffffffffffffffffffffffffffffffffffffff168152602001838152602001828152602001935050505060405180910390a18173ffffffffffffffffffffffffffffffffffffffff166108fc829081150290604051600060405180830381858888f193505050501580156108bb573d6000803e3d6000fd5b505050565b600b5481565b600060020160009054906101000a900473ffffffffffffffffffffffffffffffffffffffff1673ffffffffffffffffffffffffffffffffffffffff163373ffffffffffffffffffffffffffffffffffffffff161415156109b4576040517f08c379a000000000000000000000000000000000000000000000000000000000815260040180806020018281038252602c8152602001807f4f6e6c79207468652061756374696f6e20686f7573652063616e2072756e207481526020017f6869732066756e6374696f6e000000000000000000000000000000000000000081525060400191505060405180910390fd5b600060048111156109c157fe5b600860009054906101000a900460ff1660048111156109dc57fe5b141515610a77576040517f08c379a00000000000000000000000000000000000000000000000000000000081526004018080602001828103825260388152602001807f546f2061637469766174652074686520636f6e747261637420796f75206d757381526020017f7420626520696e2074686520477261636520506572696f64000000000000000081525060400191505060405180910390fd5b60146009544303111515610af3576040517f08c379a00000000000000000000000000000000000000000000000000000000081526004018080602001828103825260208152602001807f477261636520706572696f64206973206e6f742066696e69736865642079657481525060200191505060405180910390fd5b6001600860006101000a81548160ff02191690836004811115610b1257fe5b021790555043600060050181905550436009819055507fee2679bc2382e067cc3dfbda872852b5b1702b359c1fd6ce272c32dae5bacabf60405160405180910390a1565b6000806000018054600181600116156101000203166002900480601f016020809104026020016040519081016040528092919081815260200182805460018160011615610100020316600290048015610bf05780601f10610bc557610100808354040283529160200191610bf0565b820191906000526020600020905b815481529060010190602001808311610bd357829003601f168201915b5050505050908060010154908060020160009054906101000a900473ffffffffffffffffffffffffffffffffffffffff16908060030160009054906101000a900473ffffffffffffffffffffffffffffffffffffffff1690806004018054600181600116156101000203166002900480601f016020809104026020016040519081016040528092919081815260200182805460018160011615610100020316600290048015610ce05780601f10610cb557610100808354040283529160200191610ce0565b820191906000526020600020905b815481529060010190602001808311610cc357829003601f168201915b5050505050908060050154908060060160009054906101000a900473ffffffffffffffffffffffffffffffffffffffff16908060070154905088565b60016004811115610d2957fe5b600860009054906101000a900460ff166004811115610d4457fe5b141515610db9576040517f08c379a00000000000000000000000000000000000000000000000000000000081526004018080602001828103825260208152602001807f436f6d6d69746d656e74207068617365206e6f7420737461727465642079657481525060200191505060405180910390fd5b600c54600954430311151515610e37576040517f08c379a00000000000000000000000000000000000000000000000000000000081526004018080602001828103825260198152602001807f436f6d6d69746d656e7420706861736520697320656e6465640000000000000081525060200191505060405180910390fd5b600b543410151515610eb1576040517f08c379a00000000000000000000000000000000000000000000000000000000081526004018080602001828103825260208152602001807f5468652076616c75652073656e74206973206e6f742073756666696369656e7481525060200191505060405180910390fd5b6000601360003373ffffffffffffffffffffffffffffffffffffffff1673ffffffffffffffffffffffffffffffffffffffff16815260200190815260200160002060000154141515610f6b576040517f08c379a00000000000000000000000000000000000000000000000000000000081526004018080602001828103825260208152602001807f596f75206861766520616c7265616479207375626d697474656420612062696481525060200191505060405180910390fd5b610f73611eac565b818160400181815250503481606001818152505080601360003373ffffffffffffffffffffffffffffffffffffffff1673ffffffffffffffffffffffffffffffffffffffff168152602001908152602001600020600082015181600001556020820151816001015560408201518160020155606082015181600301559050505050565b600860009054906101000a900460ff1681565b600060020160009054906101000a900473ffffffffffffffffffffffffffffffffffffffff1673ffffffffffffffffffffffffffffffffffffffff163373ffffffffffffffffffffffffffffffffffffffff161415156110f7576040517f08c379a000000000000000000000000000000000000000000000000000000000815260040180806020018281038252602c8152602001807f4f6e6c79207468652061756374696f6e20686f7573652063616e2072756e207481526020017f6869732066756e6374696f6e000000000000000000000000000000000000000081525060400191505060405180910390fd5b6001600481111561110457fe5b600860009054906101000a900460ff16600481111561111f57fe5b1415156111ba576040517f08c379a000000000000000000000000000000000000000000000000000000000815260040180806020018281038252602c8152602001807f596f752063616e2774207374617274207769746864726177616c206265666f7281526020017f6520636f6d6d69746d656e74000000000000000000000000000000000000000081525060400191505060405180910390fd5b600c54600954430311151561125d576040517f08c379a00000000000000000000000000000000000000000000000000000000081526004018080602001828103825260258152602001807f436f6d6d69746d656e7420706572696f64206973206e6f742066696e6973686581526020017f642079657400000000000000000000000000000000000000000000000000000081525060400191505060405180910390fd5b6002600860006101000a81548160ff0219169083600481111561127c57fe5b0217905550436009819055507f06179f52469b624307d1134ccac6737f9f8297dc742b397eb14de0530dd596fa60405160405180910390a1565b600360048111156112c357fe5b600860009054906101000a900460ff1660048111156112de57fe5b141515611353576040517f08c379a000000000000000000000000000000000000000000000000000000000815260040180806020018281038252601d8152602001807f4f70656e696e67207068617365206e6f7420737461727465642079657400000081525060200191505060405180910390fd5b600e546009544303111515156113d1576040517f08c379a00000000000000000000000000000000000000000000000000000000081526004018080602001828103825260168152602001807f4f70656e696e6720706861736520697320656e6465640000000000000000000081525060200191505060405180910390fd5b601360003373ffffffffffffffffffffffffffffffffffffffff1673ffffffffffffffffffffffffffffffffffffffff1681526020019081526020016000206002015434826040516020018083815260200182815260200192505050604051602081830303815290604052805190602001201415156114b8576040517f08c379a000000000000000000000000000000000000000000000000000000000815260040180806020018281038252600a8152602001807f57726f6e6720686173680000000000000000000000000000000000000000000081525060200191505060405180910390fd5b6000601360003373ffffffffffffffffffffffffffffffffffffffff1673ffffffffffffffffffffffffffffffffffffffff1681526020019081526020016000206003015490506000601360003373ffffffffffffffffffffffffffffffffffffffff1673ffffffffffffffffffffffffffffffffffffffff168152602001908152602001600020600301819055503373ffffffffffffffffffffffffffffffffffffffff166108fc829081150290604051600060405180830381858888f1935050505015801561158d573d6000803e3d6000fd5b5034601360003373ffffffffffffffffffffffffffffffffffffffff1673ffffffffffffffffffffffffffffffffffffffff1681526020019081526020016000206000018190555081601360003373ffffffffffffffffffffffffffffffffffffffff1673ffffffffffffffffffffffffffffffffffffffff16815260200190815260200160002060010181905550601260009054906101000a900460ff16156116a25733600f60006101000a81548173ffffffffffffffffffffffffffffffffffffffff021916908373ffffffffffffffffffffffffffffffffffffffff16021790555034601081905550600a546011819055506000601260006101000a81548160ff02191690831515021790555061174e565b601054341115611730576010546011819055506116e3600f60009054906101000a900473ffffffffffffffffffffffffffffffffffffffff16601054611e61565b33600f60006101000a81548173ffffffffffffffffffffffffffffffffffffffff021916908373ffffffffffffffffffffffffffffffffffffffff1602179055503460108190555061174d565b60115434111561174257346011819055505b61174c3334611e61565b5b5b5050565b6002600481111561175f57fe5b600860009054906101000a900460ff16600481111561177a57fe5b1415156117ef576040517f08c379a00000000000000000000000000000000000000000000000000000000081526004018080602001828103825260208152602001807f5769746864726177616c207068617365206e6f7420737461727465642079657481525060200191505060405180910390fd5b600d5460095443031115151561186d576040517f08c379a00000000000000000000000000000000000000000000000000000000081526004018080602001828103825260198152602001807f5769746864726177616c20706861736520697320656e6465640000000000000081525060200191505060405180910390fd5b6000601360003373ffffffffffffffffffffffffffffffffffffffff1673ffffffffffffffffffffffffffffffffffffffff1681526020019081526020016000206003015411151561194d576040517f08c379a00000000000000000000000000000000000000000000000000000000081526004018080602001828103825260268152602001807f596f7520646f6e2774206861766520616e79206465706f73697420746f20776981526020017f746864726177000000000000000000000000000000000000000000000000000081525060400191505060405180910390fd5b60006002601360003373ffffffffffffffffffffffffffffffffffffffff1673ffffffffffffffffffffffffffffffffffffffff1681526020019081526020016000206003015481151561199d57fe5b049050600081601360003373ffffffffffffffffffffffffffffffffffffffff1673ffffffffffffffffffffffffffffffffffffffff168152602001908152602001600020600301540390506000601360003373ffffffffffffffffffffffffffffffffffffffff1673ffffffffffffffffffffffffffffffffffffffff168152602001908152602001600020600301819055507fe77c6e79e6e29c0d19961bf68269998b3c16b233806a74107f327a31c5eca3293383600060030160009054906101000a900473ffffffffffffffffffffffffffffffffffffffff1684604051808573ffffffffffffffffffffffffffffffffffffffff1673ffffffffffffffffffffffffffffffffffffffff1681526020018481526020018373ffffffffffffffffffffffffffffffffffffffff1673ffffffffffffffffffffffffffffffffffffffff16815260200182815260200194505050505060405180910390a1600060030160009054906101000a900473ffffffffffffffffffffffffffffffffffffffff1673ffffffffffffffffffffffffffffffffffffffff166108fc829081150290604051600060405180830381858888f19350505050158015611b68573d6000803e3d6000fd5b503373ffffffffffffffffffffffffffffffffffffffff166108fc839081150290604051600060405180830381858888f19350505050158015611baf573d6000803e3d6000fd5b505050565b600060020160009054906101000a900473ffffffffffffffffffffffffffffffffffffffff1673ffffffffffffffffffffffffffffffffffffffff163373ffffffffffffffffffffffffffffffffffffffff16141515611ca2576040517f08c379a000000000000000000000000000000000000000000000000000000000815260040180806020018281038252602c8152602001807f4f6e6c79207468652061756374696f6e20686f7573652063616e2072756e207481526020017f6869732066756e6374696f6e000000000000000000000000000000000000000081525060400191505060405180910390fd5b60026004811115611caf57fe5b600860009054906101000a900460ff166004811115611cca57fe5b141515611d65576040517f08c379a00000000000000000000000000000000000000000000000000000000081526004018080602001828103825260298152602001807f596f752063616e2774207374617274206f70656e696e67206265666f7265207781526020017f69746864726177616c000000000000000000000000000000000000000000000081525060400191505060405180910390fd5b600d546009544303111515611e08576040517f08c379a00000000000000000000000000000000000000000000000000000000081526004018080602001828103825260258152602001807f436f6d6d69746d656e7420706572696f64206973206e6f742066696e6973686581526020017f642079657400000000000000000000000000000000000000000000000000000081525060400191505060405180910390fd5b6003600860006101000a81548160ff02191690836004811115611e2757fe5b0217905550436009819055507fe884e87cca623860f1ac029c5df020e7b7ebad72eab657701673da4cf3e9046160405160405180910390a1565b8173ffffffffffffffffffffffffffffffffffffffff166108fc829081150290604051600060405180830381858888f19350505050158015611ea7573d6000803e3d6000fd5b505050565b60806040519081016040528060008152602001600080191681526020016000801916815260200160008152509056fea165627a7a72305820a9fb0408fd9dca36b5199425f58044b6326fb9ec96139db4395bfbc7d55371990029",
  "source": "pragma solidity ^ 0.5.1;\r\n\r\nimport \"./Auction.sol\";\r\n\r\n/// @title Vickrey Auction contract\r\n/// @author Andrea Bruno 585457\r\n/// @notice This contract implements the Vickrey auction functionalities.\r\n/// @dev The following comments are written using the Solidity NatSpec Format.\r\ncontract VickreyAuction is Auction {\r\n\r\n    /// @dev Those are the phases of the auction.\r\n    enum Phase {\r\n        GracePeriod,\r\n        Commitment,\r\n        Withdrawal,\r\n        Opening,\r\n        Finished\r\n    }\r\n    Phase public phase;\r\n\r\n    /// @dev This variable contains the block number of the current phase.\r\n    uint startPhaseBlock;\r\n\r\n    /// @dev The reserve price decided by the seller\r\n    uint reservePrice;\r\n\r\n    /// @dev The minumum deposit decided by the seller\r\n    uint public min_deposit;\r\n\r\n    /// @dev The commitment phase lenght (number of blocks)\r\n    uint commitment_len;\r\n\r\n    /// @dev The withdrawal phase lenght (number of blocks)\r\n    uint withdrawal_len;\r\n\r\n    /// @dev The opening phase lenght (number of blocks)\r\n    uint opening_len;\r\n    /// @dev The address of the highest bidder (see `open` function)\r\n    address payable highestBidder;\r\n\r\n    /// @dev The value of the highest bid\r\n    uint highestBid;\r\n\r\n    /// @dev The value of the second highest bid\r\n    uint secondHighestBid;\r\n\r\n    /// @dev This boolean is to understand if during the opening is the first bid opened\r\n    bool firstOpen = true;\r\n\r\n    ///@dev The structure of a Bid.\r\n    struct Bid {\r\n        // An integer value of the bid\r\n        uint value;\r\n\r\n        // A nonce generated by the bidder\r\n        bytes32 nonce;\r\n\r\n        // The hash of the tuple <value,nonce>\r\n        bytes32 hash;\r\n\r\n        // The deposit given during the bid\r\n        uint deposit;\r\n    }\r\n\r\n    /// @dev This mapping buond the address of the bidder to his bid\r\n    mapping(address => Bid) bids;\r\n\r\n    /// @notice This event communicate the beginning of the Withdrawal phase.\r\n    event withdrawalStarted();\r\n\r\n    /// @notice This event communicate the beginning of the Opening phase.\r\n    event openingStarted();\r\n\r\n\r\n    /// @notice This event communicate that a bidder has been refunded by half of his deposit.\r\n    /// @notice The other half is sent to the seller of the item.\r\n    /// @param bidder is the address of the bidder\r\n    /// @param value is the value sent to the bidder\r\n    /// @param seller is address of the seller\r\n    /// @param val is the value sent to the seller\r\n    event withdrawalExecuted(address bidder, uint value, address seller, uint val);\r\n\r\n    /// @notice The constructor of the Dutch auction.\r\n    /// @dev The `msg.sender` will be the seller.\r\n    /// @param _itemName is a short description of what is going to be sold.\r\n    /// @param _reservePrice is the reserve price decided by the seller.\r\n    /// @param _min_deposit is the minimum deposit decided by the seller.\r\n    /// @param _commitment_len the lenght of the commitment phase.\r\n    /// @param _withdrawal_len the lenght of the withdrawal phase.\r\n    /// @param _opening_len the lenght of the opening phase.\r\n    constructor(\r\n        address payable _houseOwner,\r\n        address payable _seller,\r\n        string memory _itemName,\r\n        uint _reservePrice,\r\n        uint _min_deposit,\r\n        uint _commitment_len,\r\n        uint _withdrawal_len,\r\n        uint _opening_len\r\n    ) public {\r\n\r\n        // Before deplying the contract a few controls are needed.\r\n        require(_reservePrice > 0, \"Reserve price should be greater than zero.\");\r\n        require(_min_deposit >= _reservePrice, \"The deposit should be greater than the reserve price\");\r\n        require(_commitment_len > 0, \"The lenght of commitment should be greater than zero.\");\r\n        require(_withdrawal_len > 0, \"The lenght of withdrawal should be greater than zero.\");\r\n        require(_opening_len > 0, \"The lenght of opening should be greater than zero.\");\r\n\r\n        // Set into the description the auction house address,\r\n        description.house = _houseOwner;\r\n        // the address of the seller,\r\n        description.seller = _seller;\r\n        // the name of the item\r\n        description.itemName = _itemName;\r\n        // the category of the Auction\r\n        description.category = \"Vickrey\";\r\n        // and the block number at deploy time\r\n        description.deployBlock = block.number;\r\n\r\n        // Set state into \"grace period\"\r\n        phase = Phase.GracePeriod;\r\n\r\n        reservePrice = _reservePrice;\r\n        min_deposit = _min_deposit;\r\n        commitment_len = _commitment_len;\r\n        withdrawal_len = _withdrawal_len;\r\n        opening_len = _opening_len;\r\n\r\n        // Update the block number of the current phase.\r\n        startPhaseBlock = block.number;\r\n    }\r\n\r\n    /// @dev This modifier allow to invoke the function olny during the Commitment phase.\r\n    modifier duringCommitment {\r\n        require(phase == Phase.Commitment, \"Commitment phase not started yet\");\r\n        require((block.number - startPhaseBlock) <= commitment_len, \"Commitment phase is ended\");\r\n        _;\r\n    }\r\n\r\n    /// @dev This modifier allow to invoke the function olny during the Withdrawal phase.\r\n    modifier duringWithdrawal {\r\n        require(phase == Phase.Withdrawal, \"Withdrawal phase not started yet\");\r\n        require((block.number - startPhaseBlock) <= withdrawal_len, \"Withdrawal phase is ended\");\r\n        _;\r\n    }\r\n\r\n    /// @dev This modifier allow to invoke the function olny during the Opening phase.\r\n    modifier duringOpening {\r\n        require(phase == Phase.Opening, \"Opening phase not started yet\");\r\n        require((block.number - startPhaseBlock) <= opening_len, \"Opening phase is ended\");\r\n        _;\r\n    }\r\n\r\n\r\n\r\n    /// @notice This function will activate the auction.\r\n    /// @dev Only the seller can invoke it.\r\n    function activateAuction() public onlyHouse {\r\n\r\n        // In order to activate the auction we need to be in the \"grace period\"\r\n        require(phase == Phase.GracePeriod, \"To activate the contract you must be in the Grace Period\");\r\n        // and also 5 minutes (20 blocks) must be elapsed.\r\n        require(block.number - startPhaseBlock > 20, \"Grace period is not finished yet\");\r\n\r\n        // Set the current phase to \"Commitment\".\r\n        phase = Phase.Commitment;\r\n\r\n        // Update the start block into the descritpion\r\n        description.startBlock = block.number;\r\n        // and also the start phase block\r\n        startPhaseBlock = block.number;\r\n\r\n        // Communicate that the auction is started.\r\n        emit auctionStarted();\r\n    }\r\n\r\n    ///@notice This function allow people to make bid.\r\n    ///@notice Note that a bid will be taken into account if the value sent is >= the minimum deposit.\r\n    ///@dev This function can be invoked only during the commitment phase.\r\n    ///@param _bidHash this is the hash of the tuple <value,nonce>. See `GenerateBid` contract for more info.\r\n    function bid(bytes32 _bidHash) public duringCommitment payable {\r\n\r\n        // The bidder should send an appropriate value.\r\n        require(msg.value >= min_deposit, \"The value sent is not sufficient\");\r\n        // The bidder should not be able to send another bid.\r\n        require(bids[msg.sender].value == 0, \"You have already submitted a bid\");\r\n\r\n        // Create a temporary bid\r\n        Bid memory tmp_bid;\r\n        tmp_bid.hash = _bidHash;\r\n        tmp_bid.deposit = msg.value;\r\n\r\n        // Save this bid into the mapping called `bids`\r\n        bids[msg.sender] = tmp_bid;\r\n    }\r\n\r\n    ///@notice This function start the withdrawal phase.\r\n    ///@dev This function can be invoked only by the seller.\r\n    function startWithdrawal() public onlyHouse {\r\n        require(phase == Phase.Commitment, \"You can't start withdrawal before commitment\");\r\n        require((block.number - startPhaseBlock) > commitment_len, \"Commitment period is not finished yet\");\r\n\r\n        phase = Phase.Withdrawal;\r\n        startPhaseBlock = block.number;\r\n\r\n        // Communicate that the Withdrawal phase is started.\r\n        emit withdrawalStarted();\r\n    }\r\n\r\n    ///@notice This function allow people to retire their bid.\r\n    ///@notice Note that only half of the deposit will be refunded.\r\n    ///@notice The other half goes to the seller\r\n    ///@dev The security pattern Checks-Effects-Interaction is respected.\r\n    function withdrawal() public duringWithdrawal {\r\n        //1. Checks\r\n        require(bids[msg.sender].deposit > 0, \"You don't have any deposit to withdraw\");\r\n\r\n        uint bidderRefund = bids[msg.sender].deposit / 2;\r\n        uint sellerRefund = bids[msg.sender].deposit - bidderRefund;\r\n\r\n        //2. Effects\r\n        bids[msg.sender].deposit = 0;\r\n        emit withdrawalExecuted(msg.sender, bidderRefund, description.seller, sellerRefund);\r\n\r\n        //3. Interaction\r\n        description.seller.transfer(sellerRefund);\r\n        msg.sender.transfer(bidderRefund);\r\n    }\r\n\r\n    ///@notice This function activate the Opening phase\r\n    ///@dev This function can be invoked only by the seller.\r\n    function startOpening() public onlyHouse {\r\n        require(phase == Phase.Withdrawal, \"You can't start opening before withdrawal\");\r\n        require((block.number - startPhaseBlock) > withdrawal_len, \"Commitment period is not finished yet\");\r\n\r\n        phase = Phase.Opening;\r\n        startPhaseBlock = block.number;\r\n\r\n        // Communicate that the Opening phase is started.\r\n        emit openingStarted();\r\n    }\r\n\r\n    ///@notice This function allow people to open their bid.\r\n    ///@param _nonce is the nonce of the bid previously generated.\r\n    function open(bytes32 _nonce) public duringOpening payable {\r\n        // Control the correctness of the bid\r\n        require(keccak256(abi.encodePacked(msg.value, _nonce)) == bids[msg.sender].hash, \"Wrong hash\");\r\n\r\n        // If the `msg.sender` has been honest, then refund him with his deposit\r\n        uint deposit = bids[msg.sender].deposit;\r\n        bids[msg.sender].deposit = 0;\r\n        msg.sender.transfer(deposit);\r\n\r\n        // Update the bid status\r\n        bids[msg.sender].value = msg.value;\r\n        bids[msg.sender].nonce = _nonce;\r\n\r\n        // If it is the first opening\r\n        if (firstOpen) {\r\n            // Update the highest bidder\r\n            highestBidder = msg.sender;\r\n            // and the bid\r\n            highestBid = msg.value;\r\n\r\n            //if there is only one bid, the winner have to pay at least the reservePrice\r\n            secondHighestBid = reservePrice;\r\n\r\n            firstOpen = false;\r\n\r\n        // If it is NOT the first opening\r\n        } else {\r\n            // If the msg.value is more than the highest bid\r\n            if (msg.value > highestBid) {\r\n                // The highest bid becomes the second highest bid\r\n                secondHighestBid = highestBid;\r\n\r\n                // Now we need to refund the bidder of the (old) highest bid\r\n                refund(highestBidder, highestBid);\r\n\r\n                // Set the new highest bidder and its own bid\r\n                highestBidder = msg.sender;\r\n                highestBid = msg.value;\r\n\r\n            // If the msg.value is NOT more than the highest bid\r\n            } else {\r\n                // Check whether the msg.value is higher than the second highest bid\r\n                if (msg.value > secondHighestBid) secondHighestBid = msg.value;\r\n\r\n                // Since the current opening is not the highest we can refund the bidder\r\n                refund(msg.sender, msg.value);\r\n            }\r\n        }\r\n    }\r\n\r\n    ///@notice This function allows to refund an address\r\n    ///@param _dest is the destination address\r\n    ///@param value is the value of this refund.\r\n    ///@dev The function is declare internal, so no one externally can invoke it.\r\n    function refund(address payable _dest, uint value) internal {\r\n        _dest.transfer(value);\r\n    }\r\n\r\n\r\n    ///@notice This function finalize and close the contract.\r\n    ///@notice In case of surplus, this ether will be sent to a charity address.\r\n    ///@dev The function is declare internal, so no one externally can invoke it.\r\n    function finalize() public onlyHouse {\r\n        require(phase == Phase.Opening, \"You can't finalize the contract before opening\");\r\n        require((block.number - startPhaseBlock) > opening_len, \"Opening period is not finished yet\");\r\n\r\n        //If there is a winner (at least one bid)\r\n        if (highestBidder != address(0)) {\r\n            description.winnerAddress = highestBidder;\r\n            description.winnerBid = secondHighestBid;\r\n\r\n            //Refund the winner\r\n            highestBidder.transfer(highestBid - secondHighestBid);\r\n\r\n            //Send ehter to the seller of the item\r\n            description.seller.transfer(description.winnerBid);\r\n        }\r\n\r\n        // A random charity address\r\n        address payable charity = 0x64DB1B94A0304E4c27De2E758B2f962d09dFE503;\r\n        uint surplus = address(this).balance;\r\n\r\n        // Set the current phase to Finished\r\n        phase = Phase.Finished;\r\n        \r\n        // Communicate the end of the auction\r\n        emit auctionFinished(description.winnerAddress, description.winnerBid, surplus);\r\n\r\n        // Send the surplus to the charity address.\r\n        charity.transfer(surplus);\r\n    }\r\n}",
  "sourcePath": "C:\\workspace\\dApp_SmartAuction\\contracts\\VickreyAuction.sol",
  "compiler": {
    "name": "solc",
    "version": "0.5.1+commit.c8a2cb62.Emscripten.clang"
  },
  "schemaVersion": "3.4.16",
  "updatedAt": "2023-12-01T15:14:55.801Z",
  "devdoc": {
    "details": "The following comments are written using the Solidity NatSpec Format.",
    "methods": {
      "activateAuction()": {
        "details": "Only the seller can invoke it."
      },
      "bid(bytes32)": {
        "params": {
          "_bidHash": "this is the hash of the tuple <value,nonce>. See `GenerateBid` contract for more info."
        }
      },
      "constructor": {
        "params": {
          "_opening_len": "the lenght of the opening phase."
        }
      },
      "finalize()": {
        "details": "The function is declare internal, so no one externally can invoke it."
      },
      "open(bytes32)": {
        "params": {
          "_nonce": "is the nonce of the bid previously generated."
        }
      },
      "startOpening()": {
        "details": "This function can be invoked only by the seller."
      },
      "startWithdrawal()": {
        "details": "This function can be invoked only by the seller."
      },
      "withdrawal()": {
        "details": "The security pattern Checks-Effects-Interaction is respected."
      }
    }
  },
  "userdoc": {
    "methods": {}
  }
}